:100000000C945D000C9485000C9485000C94850084
:100010000C9485000C9485000C9485000C9485004C
:100020000C9485000C9485000C9485000C940A04B3
:100030000C9485000C9485000C9485000C9485002C
:100040000C94C0030C9485000C948E030C946803EC
:100050000C9485000C9485000C9485000C9485000C
:100060000C9485000C94850000000008000201003B
:100070000003040700000000000000000000000072
:10008000250028002B0000000000240027002A0083
:10009000040404040404040402020202020203032E
:1000A0000303030301020408102040800102040836
:1000B0001020010204081020CB0411241FBECFEF32
:1000C000D8E0DEBFCDBF11E0A0E0B1E0E8EEFFE098
:1000D00002C005900D92AA33B107D9F722E0AAE336
:1000E000B1E001C01D92A536B207E1F710E0CDE501
:1000F000D0E004C02197FE010E948407CC35D107CF
:10010000C9F70E944E050C94F2070C940000ECE431
:10011000F1E0A089B18982E08C93A485B5851C9219
:10012000A685B7858FEC8C93108EA489B58986E05F
:100130008C93A289B3898C9180618C93A289B389B5
:100140008C9188608C93A289B3898C9180688C9300
:100150000288F389E02D80818F7D80830895CF927E
:10016000DF92EF92FF92DC01A03282E0B8070CF040
:100170003EC0B7FD06C0A53BB1052CF0A4EBB0E036
:1001800002C0A0E0B0E08091570228E830E06901A9
:10019000C81AD10887FDD394CC0CDD1CCC0CDD1C17
:1001A0000D2C000CEE08FF088091580228E532E083
:1001B000281B310987FD3395220F331F220F331F70
:1001C000A901330F660B770B9A01AB012C193D097E
:1001D0004E095F090E94DB0724EB30E040E050E06D
:1001E0000E94B107C20ED31EE41EF51ED6019091E7
:1001F00056029C3098F58091570248E850E0481B21
:10020000510987FD5395440F551F440F551FA417DF
:10021000B5078CF08091580228E532E0281B31099F
:1002200087FD3395220F331F220F331FAD012A178D
:100230003B070CF4A90142505109440F551F2FB739
:10024000F894892F90E0FC01EE0FFF1F8E0F9F1F87
:10025000FC01EF5CFD4F528341832FBFFF90EF9075
:10026000DF90CF900895CF92DF92EF92FF920F939D
:100270001F93CF93DF936C017A018B01C0E0D0E034
:10028000CE15DF0589F0D8016D918D01D601ED9174
:10029000FC910190F081E02DC6010995892B11F4A4
:1002A0007E0102C02196ECCFC701DF91CF911F9153
:1002B0000F91FF90EF90DF90CF900895FC01918D0A
:1002C000828D981761F0828DDF01A80FB11D5D96B8
:1002D0008C91928D9F5F9F73928F90E008958FEF26
:1002E0009FEF0895FC01918D828D981731F0828DDA
:1002F000E80FF11D858D90E008958FEF9FEF089531
:10030000FC01918D228D892F90E0805C9F4F821B94
:1003100091098F73992708958CE491E00E948001E0
:1003200021E0892B09F420E0822F0895FC01848DBF
:10033000DF01A80FB11DA35ABF4F2C91848D90E00F
:1003400001968F739927848FA689B7892C93A089EA
:10035000B1898C9180648C93938D848D981306C0A1
:100360000288F389E02D80818F7D80830895EF924C
:10037000FF920F931F93CF93DF93EC0181E0888F5F
:100380009B8D8C8D981305C0E889F989808185FD46
:1003900024C0F62E0B8D10E00F5F1F4F0F73112737
:1003A000E02E8C8DE8120CC00FB607FCFACFE8895E
:1003B000F989808185FFF5CFCE010E949601F1CFAA
:1003C0008B8DFE01E80FF11DE35AFF4FF0820B8F7A
:1003D000EA89FB898081806207C0EE89FF8960839A
:1003E000E889F98980818064808381E090E0DF91F1
:1003F000CF911F910F91FF90EF900895CF93DF93CE
:10040000EC01888D8823C9F0EA89FB89808185FD0C
:1004100005C0A889B9898C9186FD0FC00FB607FC6D
:10042000F5CF808185FFF2CFA889B9898C9185FFAE
:10043000EDCFCE010E949601E7CFDF91CF910895D5
:1004400080E090E0892B29F00E948C0181110C94AE
:100450000000089590E0FC01E859FF4F3491FC0141
:10046000EC55FF4F2491FC01E057FF4FE491EE2340
:1004700009F43BC0332339F1333091F038F4313093
:10048000A9F0323001F584B58F7D12C0373091F07C
:100490003830A1F03430B9F4809180008F7D03C0F2
:1004A000809180008F77809380000DC084B58F7716
:1004B00084BD09C08091B0008F7703C08091B000E7
:1004C0008F7D8093B000F0E0EE0FFF1FE458FF4FE8
:1004D000A591B4918FB7F894EC91611103C0209568
:1004E0002E2301C02E2B2C938FBF08953FB7F89475
:1004F0008091400190914101A0914201B09143014E
:1005000026B5A89B05C02F3F19F00196A11DB11D6E
:100510003FBFBA2FA92F982F8827820F911DA11DA9
:10052000B11DBC01CD0142E0660F771F881F991FE6
:100530004A95D1F708958F929F92AF92BF92CF9232
:10054000DF92EF92FF926B017C010E9476024B01D9
:100550005C01C114D104E104F104F1F00E947602BF
:10056000DC01CB0188199909AA09BB09883E93408F
:10057000A105B10570F321E0C21AD108E108F10824
:1005800088EE880E83E0981EA11CB11CC114D10412
:10059000E104F10419F7DDCFFF90EF90DF90CF90E9
:1005A000BF90AF909F908F9008952FB7F89460916F
:1005B0003C0170913D0180913E0190913F012FBF20
:1005C00008958F929F92AF92BF92CF92DF92EF9257
:1005D000FF926B017C010E94D5024B015C01C60EAB
:1005E000D71EE81EF91E0E94D502681579058A05F6
:1005F0009B0528F0C616D706E806F906A0F7FF9077
:10060000EF90DF90CF90BF90AF909F908F90089524
:100610000E948A076115710579F0FB0101900020A5
:10062000E9F73197AF01461B570BDC01ED91FC91C7
:100630000280F381E02D099480E090E008954F92CC
:100640005F926F927F92EF92FF920F931F93CF93DF
:10065000DF93CDB7DEB7A1970FB6F894DEBF0FBE1C
:10066000CDBF7C01FA01CB0119A2223008F42AE0A7
:100670008E010F5D1F4F422E512C612C712CBF013A
:10068000A30192010E948F07F901CA0101501109CB
:100690006A3014F4605D01C0695CD8016C93232B4F
:1006A000242B252B61F7B801C7010E940A03A196EC
:1006B0000FB6F894DEBF0FBECDBFDF91CF911F9173
:1006C0000F91FF90EF907F906F905F904F90089503
:1006D0001F920F920FB60F9211242F933F934F93B7
:1006E0005F936F937F938F939F93AF93BF93EF939A
:1006F000FF938CE491E00E949601FF91EF91BF91EE
:10070000AF919F918F917F916F915F914F913F91A9
:100710002F910F900FBE0F901F9018951F920F9260
:100720000FB60F9211242F938F939F93EF93FF9304
:10073000E0915C01F0915D018081E0916201F091B6
:10074000630182FD12C09081809165018F5F8F737C
:1007500020916601821751F0E0916501F0E0E45BC1
:10076000FE4F958F8093650101C08081FF91EF91CD
:100770009F918F912F910F900FBE0F901F90189502
:100780001F920F920FB60F9211242F933F938F93C6
:100790009F93AF93BF9380913C0190913D01A091B5
:1007A0003E01B0913F0130913B0123E0230F2D37F3
:1007B00020F40196A11DB11D05C026E8230F029665
:1007C000A11DB11D20933B0180933C0190933D01FD
:1007D000A0933E01B0933F0180914001909141016F
:1007E000A0914201B09143010196A11DB11D8093DA
:1007F000400190934101A0934201B0934301BF9106
:10080000AF919F918F913F912F910F900FBE0F90BD
:100810001F9018951F920F920FB60F9211242F93CD
:100820003F934F935F936F937F938F939F93AF9378
:10083000BF93EF93FF9380913A0187FF05C0109219
:100840008500109284001BC020913A01022E000CFA
:10085000330B8091550290E02817390784F480917A
:100860003A01082E000C990BFC01EE0FFF1F8E0FB2
:100870009F1FFC01EF5CFD4F808186FD15C08091BC
:100880003A018F5F80933A0120913A01022E000CC9
:10089000330B8091550290E028173907C4F48091FA
:1008A0003A018C3064F113C080913A01082E000C9B
:1008B000990BFC01EE0FFF1F8E0F9F1FFC01EF5CD9
:1008C000FD4F808160E08F730E942A02D8CF809113
:1008D000840090918500049680349C4918F480E44B
:1008E0009CE905C0809184009091850004969093C6
:1008F0008900809388008FEF80933A013BC020915C
:1009000084003091850080913A01082E000C990BEB
:10091000FC01EE0FFF1F8E0F9F1FFC01EF5CFD4FD0
:1009200081819281820F931F909389008093880028
:1009300080913A01082E000C990BFC01EE0FFF1F6D
:100940008E0F9F1FFC01EF5CFD4F808186FF12C060
:1009500080913A01082E000C990BFC01EE0FFF1F4D
:100960008E0F9F1FFC01EF5CFD4F808161E08F7354
:100970000E942A02FF91EF91BF91AF919F918F91B9
:100980007F916F915F914F913F912F910F900FBE8B
:100990000F901F90189510924F0110924E0188EE03
:1009A00093E0A0E0B0E08093500190935101A093B8
:1009B0005201B093530188E091E090934D018093F0
:1009C0004C0185EC90E0909359018093580184ECA0
:1009D00090E090935B0180935A0180EC90E09093BB
:1009E0005D0180935C0181EC90E090935F018093C6
:1009F0005E0182EC90E0909361018093600186EC4F
:100A000090E09093630180936201109265011092CF
:100A1000660110926701109268011092EF01109226
:100A2000F0011092F1011092F2011092F301109274
:100A3000F4011092F5011092F6011092F701109254
:100A4000F8011092F9011092FA011092FB01109234
:100A5000FC011092FD011092FE0180915502A6E565
:100A6000B2E09FEF48EB5BE08C3078F48C93282F5A
:100A700030E0F901EE0FFF1F2E0F3F1FF901EF5C71
:100A8000FD4F528341838F5F01C09C93139622E0F8
:100A9000A536B20749F7809355020895789484B536
:100AA000826084BD84B5816084BD85B5826085BD6A
:100AB00085B5816085BD80916E00816080936E00F8
:100AC00010928100809181008260809381008091EA
:100AD000810081608093810080918000816080939B
:100AE00080008091B10084608093B1008091B0005B
:100AF00081608093B00080917A00846080937A0056
:100B000080917A00826080937A0080917A0081607F
:100B100080937A0080917A00806880937A001092A6
:100B2000C10010922D0210922E0210922F021092EC
:100B300030021092EB011092EC011092ED01109234
:100B4000EE0168EB7BE080E090E00E94E1028CE443
:100B500091E090932C0280932B020E9487000E94C8
:100B6000D5026093EB017093EC018093ED019093BB
:100B7000EE0164E171E080912B0290912C020E94C1
:100B80000A036AE070E080E090E00E94E10281E008
:100B90008093FF010E948700809156028C3008F0FC
:100BA00067C0E4EAF0E02491E0E9F0E08491882372
:100BB00099F090E0880F991FFC01EA57FF4FA5912B
:100BC000B491FC01E458FF4F859194918FB7F8944C
:100BD000EC91E22BEC938FBF80915602E82FF0E06E
:100BE0009F01220F331FE20FF31FEF5CFD4F908137
:100BF000907C908310925702109258026CE00E94F1
:100C000078072CE0829FB001112440E050E09A0167
:100C1000260F371FF901EE0FFF1F2E0F3F1FF9019F
:100C2000EF5CFD4F908196FD16C04F5F5F4F4C30DB
:100C3000510569F781110FC01092800082E0809306
:100C400081001092850010928400B19A80916F000B
:100C5000826080936F00E0915602F0E0CF01880F30
:100C6000991FE80FF91FEF5CFD4F8081806480833E
:100C700084EF882E99249394A12CB12C0E94D50244
:100C8000672B682B692B41F40E94D50262307105F5
:100C90008105910508F40BC10E94D50260934801BB
:100CA0007093490180934A0190934B01C090440195
:100CB000D0904501E0904601F09047016C157D050C
:100CC0008E059F0540F46093440170934501809325
:100CD000460190934701C0904401D0904501E090B7
:100CE0004601F09047019B01AC012C193D094E09CA
:100CF0005F0969017A013AEFC316D104E104F104F6
:100D000008F4D5C060934401709345018093460177
:100D1000909347018092F7019092F801A092F90117
:100D2000B092FA011092FB011092FC011092FD01A9
:100D30001092FE018091EF019091F001A091F101DC
:100D4000B091F2018093F3019093F401A093F50127
:100D5000B093F6010E94D5026093EF017093F00109
:100D60008093F1019093F2010E94D5026093EB0110
:100D70007093EC018093ED019093EE010E94D502F7
:100D80006B017C0166E271E080912B0290912C0254
:100D90000E940A032AE041E050E060E070E08091A8
:100DA0002B0290912C020E941F036DE271E0809152
:100DB0002B0290912C020E940A032AE0B701A6019F
:100DC00080912B0290912C020E941F036FE271E030
:100DD00080912B0290912C020E940A038091EF01D6
:100DE0009091F001A091F101B091F201B701A6013B
:100DF000481B590B6A0B7B0B2AE080912B029091C8
:100E00002C020E941F036FE271E080912B029091EF
:100E10002C020E940A034091EF015091F001609171
:100E2000F1017091F2018091F3019091F401A09190
:100E3000F501B091F601481B590B6A0B7B0B2AE0B8
:100E400080912B0290912C020E941F0361E371E0BC
:100E500080912B0290912C020E940A030E94D502DD
:100E6000AB01BC012AE080912B0290912C020E94E0
:100E70001F03E0902B02F0902C0263E371E0C701A6
:100E80000E940A0363E271E0C7010E940A0365E061
:100E900070E080E090E00E94E1020E94D502609341
:100EA000EF017093F0018093F1019093F20180E0E3
:100EB00090E00E94AF0064EF71E080E090E00E945B
:100EC0009B028AE590E00E94AF0064EF71E080E051
:100ED00090E00E949B0284EB90E00E94AF0068EEDD
:100EE00073E080E090E00E949B020E942002C6CE48
:100EF000991B79E004C0991F961708F0961B881F6C
:100F00007A95C9F780950895EE0FFF1F0590F4912B
:100F1000E02D099481E090E0F8940C94F207A1E2AE
:100F20001A2EAA1BBB1BFD010DC0AA1FBB1FEE1F63
:100F3000FF1FA217B307E407F50720F0A21BB30BAE
:100F4000E40BF50B661F771F881F991F1A9469F72A
:100F500060957095809590959B01AC01BD01CF0186
:100F60000895052E97FB1EF400940E94C80757FDB4
:100F700007D00E948F0707FC03D04EF40C94C807DB
:100F800050954095309521953F4F4F4F5F4F0895B5
:100F900090958095709561957F4F8F4F9F4F0895E5
:100FA0000E94E307A59F900DB49F900DA49F800D14
:100FB000911D11240895B7FF0C94D0070E94D0070B
:100FC000821B930B0895A29FB001B39FC001A39F02
:100FD000700D811D1124911DB29F700D811D112472
:080FE000911D0895F894FFCF64
:100FE8000100000000000000B701330180015E012C
:100FF8007201FE01564D4450565F317C315F564DAB
:101008004450560D0A00564D4450455F003A323A56
:0A101800007C005F564D4450450077
:107E0000112484B714BE81FFF0D085E080938100F7
:107E100082E08093C00088E18093C10086E0809377
:107E2000C20080E18093C4008EE0C9D0259A86E02C
:107E300020E33CEF91E0309385002093840096BBD3
:107E4000B09BFECF1D9AA8958150A9F7CC24DD24C4
:107E500088248394B5E0AB2EA1E19A2EF3E0BF2EE7
:107E6000A2D0813461F49FD0082FAFD0023811F036
:107E7000013811F484E001C083E08DD089C08234E0
:107E800011F484E103C0853419F485E0A6D080C0E4
:107E9000853579F488D0E82EFF2485D0082F10E0AE
:107EA000102F00270E291F29000F111F8ED06801E7
:107EB0006FC0863521F484E090D080E0DECF843638
:107EC00009F040C070D06FD0082F6DD080E0C81688
:107ED00080E7D80618F4F601B7BEE895C0E0D1E017
:107EE00062D089930C17E1F7F0E0CF16F0E7DF06D8
:107EF00018F0F601B7BEE89568D007B600FCFDCFD4
:107F0000A601A0E0B1E02C9130E011968C91119780
:107F100090E0982F8827822B932B1296FA010C0160
:107F200087BEE89511244E5F5F4FF1E0A038BF0790
:107F300051F7F601A7BEE89507B600FCFDCF97BE46
:107F4000E89526C08437B1F42ED02DD0F82E2BD052
:107F50003CD0F601EF2C8F010F5F1F4F84911BD097
:107F6000EA94F801C1F70894C11CD11CFA94CF0C13
:107F7000D11C0EC0853739F428D08EE10CD085E9AC
:107F80000AD08FE07ACF813511F488E018D01DD067
:107F900080E101D065CF982F8091C00085FFFCCF94
:107FA0009093C60008958091C00087FFFCCF809118
:107FB000C00084FD01C0A8958091C6000895E0E648
:107FC000F0E098E1908380830895EDDF803219F02E
:107FD00088E0F5DFFFCF84E1DECF1F93182FE3DFCA
:107FE0001150E9F7F2DF1F91089580E0E8DFEE27F6
:047FF000FF270994CA
:027FFE00040479
:0400000300007E007B
:00000001FF