:100000000C945D000C9485000C9485000C94850084
:100010000C9485000C9485000C9485000C9485004C
:100020000C9485000C9485000C9485000C9460035E
:100030000C9485000C9485000C9485000C9485002C
:100040000C9416030C9485000C94E4020C94BE02EC
:100050000C9485000C9485000C9485000C9485000C
:100060000C9485000C94850000000008000201003B
:100070000003040700000000000000000000000072
:10008000250028002B0000000000240027002A0083
:10009000040404040404040402020202020203032E
:1000A0000303030301020408102040800102040836
:1000B0001020010204081020210411241FBECFEFDC
:1000C000D8E0DEBFCDBF22E0AAE2B1E001C01D92C0
:1000D000AC30B207E1F711E0A0E0B1E0E0E1FDE013
:1000E00002C005900D92AA32B107D9F710E0CDE514
:1000F000D0E004C02197FE010E941806CC35D1073C
:10010000C9F70E9484040C9486060C940000CF92D8
:10011000DF92EF92FF92DC01A03282E0B8070CF090
:100120003EC0B7FD06C0A53BB1052CF0A4EBB0E086
:1001300002C0A0E0B0E08091FB0128E830E0690156
:10014000C81AD10887FDD394CC0CDD1CCC0CDD1C67
:100150000D2C000CEE08FF088091FC0128E532E030
:10016000281B310987FD3395220F331F220F331FC0
:10017000A901330F660B770B9A01AB012C193D09CE
:100180004E095F090E944D0624EB30E040E050E04C
:100190000E942306C20ED31EE41EF51ED6019091C6
:1001A000FA019C3098F58091FB0148E850E0481B2B
:1001B000510987FD5395440F551F440F551FA41730
:1001C000B5078CF08091FC0128E532E0281B31094D
:1001D00087FD3395220F331F220F331FAD012A17DE
:1001E0003B070CF4A90142505109440F551F2FB78A
:1001F000F894892F90E0FC01EE0FFF1F8E0F9F1FD8
:10020000FC01EB52FE4F528341832FBFFF90EF90D2
:10021000DF90CF900895CF92DF92EF92FF920F93ED
:100220001F93CF93DF936C017A018B01C0E0D0E084
:10023000CE15DF0589F0D8016D918D01D601ED91C4
:10024000FC910190F081E02DC6010995892B11F4F4
:100250007E0102C02196ECCFC701DF91CF911F91A3
:100260000F91FF90EF90DF90CF900895FC01918D5A
:10027000828D981761F0828DDF01A80FB11D5D9608
:100280008C91928D9F5F9F73928F90E008958FEF76
:100290009FEF0895FC01918D828D981731F0828D2A
:1002A000E80FF11D858D90E008958FEF9FEF089581
:1002B000FC01918D228D892F90E0805C9F4F821BE5
:1002C00091098F739927089588E391E00E9458015E
:1002D00021E0892B09F420E0822F0895FC01848D10
:1002E000DF01A80FB11DA35ABF4F2C91848D90E060
:1002F00001968F739927848FA689B7892C93A0893B
:10030000B1898C9180648C93938D848D981306C0F1
:100310000288F389E02D80818F7D80830895EF929C
:10032000FF920F931F93CF93DF93EC0181E0888FAF
:100330009B8D8C8D981305C0E889F989808185FD96
:1003400024C0F62E0B8D10E00F5F1F4F0F73112787
:10035000E02E8C8DE8120CC00FB607FCFACFE889AE
:10036000F989808185FFF5CFCE010E946E01F1CF22
:100370008B8DFE01E80FF11DE35AFF4FF0820B8FCA
:10038000EA89FB898081806207C0EE89FF896083EA
:10039000E889F98980818064808381E090E0DF9141
:1003A000CF911F910F91FF90EF900895CF93DF931E
:1003B000EC01888D8823C9F0EA89FB89808185FD5D
:1003C00005C0A889B9898C9186FD0FC00FB607FCBE
:1003D000F5CF808185FFF2CFA889B9898C9185FFFF
:1003E000EDCFCE010E946E01E7CFDF91CF9108954E
:1003F00080E090E0892B29F00E94640181110C9427
:100400000000089590E0FC01E859FF4F3491FC0191
:10041000EC55FF4F2491FC01E057FF4FE491EE2390
:1004200009F43BC0332339F1333091F038F43130E3
:10043000A9F0323001F584B58F7D12C0373091F0CC
:100440003830A1F03430B9F4809180008F7D03C042
:10045000809180008F77809380000DC084B58F7766
:1004600084BD09C08091B0008F7703C08091B00037
:100470008F7D8093B000F0E0EE0FFF1FE458FF4F38
:10048000A591B4918FB7F894EC91611103C02095B8
:100490002E2301C02E2B2C938FBF08953FB7F894C5
:1004A0008091300190913101A0913201B0913301DE
:1004B00026B5A89B05C02F3F19F00196A11DB11DBF
:1004C0003FBFBA2FA92F982F8827820F911DA11DFA
:1004D000B11DBC01CD0142E0660F771F881F991F37
:1004E0004A95D1F708958F929F92AF92BF92CF9283
:1004F000DF92EF92FF920E944E024B015C018FE06F
:10050000C82ED12CE12CF12C0E944E02DC01CB0133
:1005100088199909AA09BB09883E9340A105B1052C
:1005200058F021E0C21AD108E108F10888EE880EDF
:1005300083E0981EA11CB11CC114D104E104F10494
:1005400019F7FF90EF90DF90CF90BF90AF909F9002
:100550008F900895009769F0FC0101900020E9F761
:100560003197AF01481B590BBC0188E391E00C9413
:100570000B0180E090E008950E941E061F920F92EA
:100580000FB60F9211242F933F934F935F936F9366
:100590007F938F939F93AF93BF93EF93FF9388E3E2
:1005A00091E00E946E01FF91EF91BF91AF919F91F9
:1005B0008F917F916F915F914F913F912F910F900C
:1005C0000FBE0F901F9018951F920F920FB60F92AB
:1005D00011242F938F939F93EF93FF93E091480102
:1005E000F09149018081E0914E01F0914F0182FD2F
:1005F00012C09081809151018F5F8F7320915201C1
:10060000821751F0E0915101F0E0E85CFE4F958FC8
:100610008093510101C08081FF91EF919F918F9153
:100620002F910F900FBE0F901F9018951F920F9251
:100630000FB60F9211242F933F938F939F93AF93F5
:10064000BF9380912C0190912D01A0912E01B0912A
:100650002F0130912B0123E0230F2D3720F4019639
:10066000A11DB11D05C026E8230F0296A11DB11DD5
:1006700020932B0180932C0190932D01A0932E01A8
:10068000B0932F018091300190913101A0913201FE
:10069000B09133010196A11DB11D8093300190935B
:1006A0003101A0933201B0933301BF91AF919F917B
:1006B0008F913F912F910F900FBE0F901F90189523
:1006C0001F920F920FB60F9211242F933F934F93C7
:1006D0005F936F937F938F939F93AF93BF93EF93AA
:1006E000FF9380912A0187FF05C010928500109228
:1006F00084001BC020912A01022E000C330B809134
:10070000F90190E02817390784F480912A01082E16
:10071000000C990BFC01EE0FFF1F8E0F9F1FFC01B9
:10072000EB52FE4F808186FD15C080912A018F5FBC
:1007300080932A0120912A01022E000C330B809114
:10074000F90190E028173907C4F480912A018C3010
:1007500064F113C080912A01082E000C990BFC0152
:10076000EE0FFF1F8E0F9F1FFC01EB52FE4F80818B
:1007700060E08F730E940202D8CF80918400909134
:100780008500049680349C4918F480E49CE905C0F7
:1007900080918400909185000496909389008093C5
:1007A00088008FEF80932A013BC020918400309114
:1007B000850080912A01082E000C990BFC01EE0F98
:1007C000FF1F8E0F9F1FFC01EB52FE4F8181928114
:1007D000820F931F909389008093880080912A0153
:1007E000082E000C990BFC01EE0FFF1F8E0F9F1FB0
:1007F000FC01EB52FE4F808186FF12C080912A01DE
:10080000082E000C990BFC01EE0FFF1F8E0F9F1F8F
:10081000FC01EB52FE4F808161E08F730E94020267
:10082000FF91EF91BF91AF919F918F917F916F91C8
:100830005F914F913F912F910F900FBE0F901F909E
:10084000189510923B0110923A0188EE93E0A0E0D7
:10085000B0E080933C0190933D01A0933E01B093A2
:100860003F0188E091E0909339018093380185EC55
:1008700090E0909345018093440184EC90E0909344
:1008800047018093460180EC90E09093490180936A
:10089000480181EC90E090934B0180934A0182ECF7
:1008A00090E090934D0180934C0186EC90E0909302
:1008B0004F0180934E0110925101109252011092FB
:1008C0005301109254018091F901AAEFB1E09FEF1A
:1008D00048EB5BE08C3078F48C93282F30E0F90102
:1008E000EE0FFF1F2E0F3F1FF901EB52FE4F5283F9
:1008F00041838F5F01C09C93139622E0AC30B20716
:1009000049F78093F9010895CF93DF93CDB7DEB710
:10091000A1970FB6F894DEBF0FBECDBF789484B513
:10092000826084BD84B5816084BD85B5826085BDEB
:1009300085B5816085BD80916E00816080936E0079
:10094000109281008091810082608093810080916B
:10095000810081608093810080918000816080931C
:1009600080008091B10084608093B1008091B000DC
:1009700081608093B00080917A00846080937A00D7
:1009800080917A00826080937A0080917A00816001
:1009900080937A0080917A00806880937A00109228
:1009A000C100E0914801F091490182E08083E0912B
:1009B0004401F09145011082E0914601F091470118
:1009C0008FEC808310925001E0914C01F0914D0129
:1009D00086E08083E0914A01F0914B018081806143
:1009E0008083E0914A01F0914B018081886080838F
:1009F000E0914A01F0914B01808180688083E09111
:100A00004A01F0914B0180818F7D808384E191E0E8
:100A10000E94AA0287E291E00E94AA028091FA0154
:100A20008C3008F068C0EDEAF0E02491E9E9F0E0EC
:100A30008491882399F090E0880F991FFC01EA5770
:100A4000FF4FA591B491FC01E458FF4F859194911B
:100A50008FB7F894EC91E22BEC938FBF8091FA0161
:100A6000E82FF0E09F01220F331FE20FF31FEB523C
:100A7000FE4F9081907C996090831092FB011092C0
:100A8000FC016CE00E940C069CE0899FB0011124DF
:100A900040E050E09A01260F371FF901EE0FFF1FCB
:100AA0002E0F3F1FF901EB52FE4F908196FD16C0AD
:100AB0004F5F5F4F4C30510569F781110FC01092A5
:100AC000800082E080938100109285001092840063
:100AD000B19A80916F00826080936F00E091FA017B
:100AE000F0E0CF01880F991FE80FF91FEB52FE4F7E
:100AF0008081806480838AE0882E912CA12CB12C87
:100B000004EB10E088E391E00E945801892BF9F092
:100B100088E391E00E94360190933701809336017B
:100B200020913401309135018436910519F4C901C1
:100B30000A9605C08136910551F4C9010A97909330
:100B40003501809334010E9487000E947302C09097
:100B50003401D09035010D2C000CEE08FF08F7FE93
:100B600026C0E0913801F09139010190F081E02D2B
:100B70006DE288E391E0099522273327A9012C191A
:100B80003D094E095F0919A2FE01B1967F01CA0114
:100B9000B901A50194010E945506605DF7016293B9
:100BA0007F01211531054105510589F715C0A701C0
:100BB000960119A2CE0181967C01CA01B901A50155
:100BC00094010E945506605DF70162937F01211533
:100BD00031054105510589F7C7010E94AA0287E244
:100BE00091E00E94AA028091340190913501843BEA
:100BF000910524F010933501009334018091340164
:100C0000909135011816190624F0109235011092B2
:100C100034010E94F80176CF991B79E004C0991F36
:100C2000961708F0961B881F7A95C9F78095089546
:100C3000EE0FFF1F0590F491E02D099481E090E004
:100C4000F8940C948606052E97FB1EF400940E94DF
:100C50003A0657FD07D00E94550607FC03D04EF414
:100C60000C943A0650954095309521953F4F4F4F43
:100C70005F4F089590958095709561957F4F8F4F48
:100C80009F4F08950E947706A59F900DB49F900DE9
:100C9000A49F800D911D11240895B7FF0C94420666
:100CA0000E944206821B930B0895A1E21A2EAA1BF2
:100CB000BB1BFD010DC0AA1FBB1FEE1FFF1FA2170C
:100CC000B307E407F50720F0A21BB30BE40BF50B09
:100CD000661F771F881F991F1A9469F76095709592
:100CE000809590959B01AC01BD01CF010895A29F15
:100CF000B001B39FC001A39F700D811D1124911DF0
:100D0000B29F700D811D1124911D0895F894FFCF9D
:100D100001000000000000008F010B0158013601A6
:100D20004A01D60141726475696E6F2052756E6E0C
:0A0D3000696E672E2E2E000D0A00DA
:00000001FF
