:100000000C945D000C9485000C9485000C94850084
:100010000C9485000C9485000C9485000C9485004C
:100020000C9485000C9485000C9485000C94F902C6
:100030000C9485000C9485000C9485000C9485002C
:100040000C94AF020C9485000C947D020C94570222
:100050000C9485000C9485000C9485000C9485000C
:100060000C9485000C9485000000000024002700FB
:100070002A0000000000250028002B0004040404CE
:100080000404040402020202020203030303030342
:10009000010204081020408001020408102001021F
:1000A00004081020000000080002010000030407FB
:1000B0000000000000000000BA0311241FBECFEFB3
:1000C000D8E0DEBFCDBF11E0A0E0B1E0E0E3FBE0AF
:1000D00002C005900D92A832B107D9F722E0A8E23C
:1000E000B1E001C01D92A630B207E1F710E0CDE506
:1000F000D0E004C02197FE010E948B05CC35D107CA
:10010000C9F70E941D040C9496050C940000CF9230
:10011000DF92EF92FF920F931F93CF93DF936C01C7
:100120007A018B01C0E0D0E0CE15DF0589F0D8015F
:100130006D918D01D601ED91FC910190F081E02D42
:10014000C6010995892B11F47E0102C02196ECCFDE
:10015000C701DF91CF911F910F91FF90EF90DF903A
:10016000CF900895089580E090E00895FC01538DAC
:10017000448D252F30E0842F90E0821B930B541781
:1001800010F0CF96089501970895FC01918D828D0E
:10019000981761F0828DDF01A80FB11D5D968C91DB
:1001A000928D9F5F9F73928F90E008958FEF9FEFE6
:1001B0000895FC01918D828D981731F0828DE80FA2
:1001C000F11D858D90E008958FEF9FEF0895FC015C
:1001D000918D228D892F90E0805C9F4F821B910929
:1001E0008F739927089582E391E00E94E70021E050
:1001F000892B09F420E0822F0895FC01848DDF0112
:10020000A80FB11DA35ABF4F2C91848D90E0019689
:100210008F739927848FA689B7892C93A089B18978
:100220008C9180648C93938D848D981306C0028882
:10023000F389E02D80818F7D80830895EF92FF9276
:100240000F931F93CF93DF93EC0181E0888F9B8DF9
:100250008C8D981305C0E889F989808185FD24C0BB
:10026000F62E0B8D10E00F5F1F4F0F731127E02E3E
:100270008C8DE8120CC00FB607FCFACFE889F9891B
:10028000808185FFF5CFCE010E94FD00F1CF8B8DDF
:10029000FE01E80FF11DE35AFF4FF0820B8FEA8950
:1002A000FB898081806207C0EE89FF896083E889CD
:1002B000F98980818064808381E090E0DF91CF9133
:1002C0001F910F91FF90EF900895CF93DF93EC0172
:1002D000888D8823C9F0EA89FB89808185FD05C066
:1002E000A889B9898C9186FD0FC00FB607FCF5CFA0
:1002F000808185FFF2CFA889B9898C9185FFEDCFE8
:10030000CE010E94FD00E7CFDF91CF91089580E0FC
:1003100090E0892B29F00E94F30081110C940000D9
:10032000089590E0FC01EC55FF4F3491FC01E0573B
:10033000FF4F2491FC01E458FF4FE491EE2309F4B0
:100340003BC0332339F1333091F038F43130A9F028
:10035000323001F584B58F7D12C0373091F03830DE
:10036000A1F03430B9F4809180008F7D03C080917A
:1003700080008F77809380000DC084B58F7784BD17
:1003800009C08091B0008F7703C08091B0008F7D4D
:100390008093B000F0E0EE0FFF1FEE58FF4FA591E5
:1003A000B4918FB7F894EC91611103C020952E237E
:1003B00001C02E2B2C938FBF0895CF93DF93DC01C8
:1003C0008C918C3008F06DC09B013327F901E05708
:1003D000FF4F8491F901E458FF4F2491222399F0B3
:1003E00030E0220F331FF901E859FF4FC591D49136
:1003F000F901EE58FF4F259134919FB7F894E881A9
:10040000E82BE8839FBF8C91E82FF0E09F01220F3B
:10041000331FE20FF31FE153FE4F6F739081907C07
:10042000692B608311961C92119712961C92129759
:100430006CE00E947F059CE0899FB001112440E0A0
:1004400050E09A01260F371FF901EE0FFF1F2E0F04
:100450003F1FF901E153FE4F908196FD16C04F5F9B
:100460005F4F4C30510569F781110FC01092800029
:1004700082E0809381001092850010928400B19AEE
:1004800080916F00826080936F00EC91F0E0CF016B
:10049000880F991FE80FF91FE153FE4F8081806498
:1004A00080838C91DF91CF9108950E9491051F92D6
:1004B0000F920FB60F9211242F933F934F935F9398
:1004C0006F937F938F939F93AF93BF93EF93FF931C
:1004D00082E391E00E94FD00FF91EF91BF91AF9107
:1004E0009F918F917F916F915F914F913F912F914C
:1004F0000F900FBE0F901F9018951F920F920FB67E
:100500000F9211242F938F939F93EF93FF93E0917A
:100510004201F09143018081E0914801F09149014D
:1005200082FD12C0908180914B018F5F8F7320916B
:100530004C01821751F0E0914B01F0E0EE5CFE4F70
:10054000958F80934B0101C08081FF91EF919F9126
:100550008F912F910F900FBE0F901F9018951F92A3
:100560000F920FB60F9211242F933F938F939F9367
:10057000AF93BF9380912E0190912F01A0913001F4
:10058000B091310130912D0123E0230F2D3720F45C
:100590000196A11DB11D05C026E8230F0296A11DDD
:1005A000B11D20932D0180932E0190932F01A093D4
:1005B0003001B09331018091290190912A01A091DD
:1005C0002B01B0912C010196A11DB11D8093290131
:1005D00090932A01A0932B01B0932C01BF91AF916E
:1005E0009F918F913F912F910F900FBE0F901F9071
:1005F00018951F920F920FB60F9211242F933F93CD
:100600004F935F936F937F938F939F93AF93BF931A
:10061000EF93FF938091280187FF05C0109285001A
:10062000109284001BC020912801022E000C330B75
:100630008091F30190E02817390784F48091280114
:10064000082E000C990BFC01EE0FFF1F8E0F9F1F51
:10065000FC01E153FE4F808186FD15C08091280189
:100660008F5F8093280120912801022E000C330B0C
:100670008091F30190E028173907C4F48091280194
:100680008C3064F113C080912801082E000C990B66
:10069000FC01EE0FFF1F8E0F9F1FFC01E153FE4F69
:1006A000808160E08F730E949101D8CF8091840097
:1006B00090918500049680349C4918F480E49CE96C
:1006C00005C08091840090918500049690938900E4
:1006D000809388008FEF809328013BC02091840095
:1006E0003091850080912801082E000C990BFC01A7
:1006F000EE0FFF1F8E0F9F1FFC01E153FE4F818104
:100700009281820F931F909389008093880080913B
:100710002801082E000C990BFC01EE0FFF1F8E0F15
:100720009F1FFC01E153FE4F808186FF12C0809124
:100730002801082E000C990BFC01EE0FFF1F8E0FF5
:100740009F1FFC01E153FE4F808161E08F730E9487
:100750009101FF91EF91BF91AF919F918F917F9107
:100760006F915F914F913F912F910F900FBE0F901E
:100770001F901895109235011092340188EE93E085
:10078000A0E0B0E08093360190933701A093380148
:10079000B093390184E091E090933301809332016A
:1007A00085EC90E090933F0180933E0184EC90E0D3
:1007B000909341018093400180EC90E0909343013D
:1007C0008093420181EC90E0909345018093440135
:1007D00082EC90E0909347018093460186EC90E094
:1007E000909349018093480110924B0110924C0163
:1007F00010924D0110924E018091F301A4EFB1E0EF
:100800009FEF48EB5BE08C3078F48C93282F30E03E
:10081000F901EE0FFF1F2E0F3F1FF901E153FE4FAD
:10082000528341838F5F01C09C93139622E0A630D0
:10083000B20749F78093F3010895789484B58260F4
:1008400084BD84B5816084BD85B5826085BD85B574
:10085000816085BD80916E00816080936E001092F2
:10086000810080918100826080938100809181006D
:1008700081608093810080918000816080938000FE
:100880008091B10084608093B1008091B00081605C
:100890008093B00080917A00846080937A00809188
:1008A0007A00826080937A0080917A0081608093E0
:1008B0007A0080917A00806880937A001092C1005B
:1008C000E0914201F091430182E08083E0913E019A
:1008D000F0913F011082E0914001F09141018FECD5
:1008E000808310924A01E0914601F091470186E031
:1008F0008083E0914401F091450180818061808393
:10090000E0914401F0914501808188608083E0910D
:100910004401F0914501808180688083E091440129
:10092000F091450180818F7D808342E150E062E15A
:1009300071E082E391E00E94870042E050E065E2CE
:1009400071E082E391E00E94870062E070E084EF52
:1009500091E00E94DD0163E070E087EF91E00E948A
:10096000DD0164E070E08AEF91E00E94DD0165E066
:1009700070E08DEF91E00E94DD0166E070E080E0C4
:1009800092E00E94DD0167E070E083E092E00E9467
:10099000DD0158E8A52EB12C68E5862E62E0962E82
:1009A00074EB472E512C612C712C80910502909193
:1009B0000402C0910302CC3008F043C08501091B3A
:1009C000110997FD1395000F111F000F111F6801EA
:1009D000012E000CEE08FF089401281B310987FD49
:1009E0003395220F331F220F331FC901330FAA0B78
:1009F000BB0B9C01AD012C193D094E095F09A4E117
:100A0000B0E00E944305A30192010E942405C20E9A
:100A1000D31EE41EF51EC016D1060CF4680182E058
:100A2000C81AD108CC0CDD1C8FB7F894D0E09E0119
:100A3000220F331FC20FD31FC153DE4FDA82C98288
:100A40008FBF0E948701B1CF052E97FB1EF4009443
:100A50000E943B0557FD07D00E944E0507FC03D0BE
:100A60004EF40C943B0550954095309521953F4FA1
:100A70004F4F5F4F089590958095709561957F4F8A
:100A80008F4F9F4F08950E947005A59F900DB49FB2
:100A9000900DA49F800D911D11240895A1E21A2E9E
:100AA000AA1BBB1BFD010DC0AA1FBB1FEE1FFF1F12
:100AB000A217B307E407F50720F0A21BB30BE40B62
:100AC000F50B661F771F881F991F1A9469F76095A9
:100AD0007095809590959B01AC01BD01CF01089563
:100AE000A29FB001B39FC001A39F700D811D11246F
:100AF000911DB29F700D811D1124911D0895991BA8
:100B000079E004C0991F961708F0961B881F7A9504
:100B1000C9F780950895EE0FFF1F0590F491E02D21
:100B2000099481E090E0F8940C949605F894FFCF36
:100B3000000000001E018700B6006501E700C50047
:100B4000D90041726475696E6F2052756E6E696E60
:080B5000672E2E2E000D0A0095
:00000001FF
