:100000000C9471000C9499000C9499000C94990034
:100010000C9499000C9499000C9499000C949900FC
:100020000C9499000C9499000C9499000C94820300
:100030000C9499000C9499000C9499000C949900DC
:100040000C9438030C9499000C9406030C94E00271
:100050000C9499000C9499000C9499000C949900BC
:100060000C9499000C949900072C7AA5BA6CC59051
:10007000DA3B9365FC8BBC53F810FD3C5692834DE4
:10008000BD879D3AB63DCBC9BF5BBE73DA0FC93F92
:1000900000000000240027002A00000000002500C6
:1000A00028002B00040404040404040402020202D5
:1000B000020203030303030301020408102040802B
:1000C00001020408102001020408102000000008AA
:1000D000000201000003040700000000000000000F
:1000E000430411241FBECFEFD8E0DEBFCDBF22E016
:1000F000A6E3B1E001C01D92A431B207E1F711E01F
:10010000A0E0B1E0ECEBF2E102C005900D92A63365
:10011000B107D9F710E0C1E7D0E004C02197FE0194
:100120000E94AB06C037D107C9F70E94A6040C9401
:100130005C090C940000CF92DF92EF92FF920F9334
:100140001F93CF93DF936C017A018B01C0E0D0E065
:10015000CE15DF0589F0D8016D918D01D601ED91A5
:10016000FC910190F081E02DC6010995892B11F4D5
:100170007E0102C02196ECCFC701DF91CF911F9184
:100180000F91FF90EF90DF90CF900895FC01918D3B
:10019000828D981761F0828DDF01A80FB11D5D96E9
:1001A0008C91928D9F5F9F73928F90E008958FEF57
:1001B0009FEF0895FC01918D828D981731F0828D0B
:1001C000E80FF11D858D90E008958FEF9FEF089562
:1001D000FC01918D228D892F90E0805C9F4F821BC6
:1001E00091098F739927089580E491E00E94E800B7
:1001F00021E0892B09F420E0822F0895FC01848DF1
:10020000DF01A80FB11DA35ABF4F2C91848D90E040
:1002100001968F739927848FA689B7892C93A0891B
:10022000B1898C9180648C93938D848D981306C0D2
:100230000288F389E02D80818F7D80830895EF927D
:10024000FF920F931F93CF93DF93EC0181E0888F90
:100250009B8D8C8D981305C0E889F989808185FD77
:1002600024C0F62E0B8D10E00F5F1F4F0F73112768
:10027000E02E8C8DE8120CC00FB607FCFACFE8898F
:10028000F989808185FFF5CFCE010E94FE00F1CF74
:100290008B8DFE01E80FF11DE35AFF4FF0820B8FAB
:1002A000EA89FB898081806207C0EE89FF896083CB
:1002B000E889F98980818064808381E090E0DF9122
:1002C000CF911F910F91FF90EF900895CF93DF93FF
:1002D000EC01888D8823C9F0EA89FB89808185FD3E
:1002E00005C0A889B9898C9186FD0FC00FB607FC9F
:1002F000F5CF808185FFF2CFA889B9898C9185FFE0
:10030000EDCFCE010E94FE00E7CFDF91CF9108959F
:1003100080E090E0892B29F00E94F40081110C9478
:100320000000089590E0FC01E453FF4F3491FC017C
:10033000E854FF4F2491FC01EC55FF4FE491EE236C
:1003400009F43BC0332339F1333091F038F43130C4
:10035000A9F0323001F584B58F7D12C0373091F0AD
:100360003830A1F03430B9F4809180008F7D03C023
:10037000809180008F77809380000DC084B58F7747
:1003800084BD09C08091B0008F7703C08091B00018
:100390008F7D8093B000F0E0EE0FFF1FE656FF4F19
:1003A000A591B4918FB7F894EC91611103C0209599
:1003B0002E2301C02E2B2C938FBF0895FC0190811A
:1003C0009C3080F5818128E830E0281B310987FDC9
:1003D0003395220F331F220F331F621773077CF0F0
:1003E000828128E532E0281B310987FD3395220FF1
:1003F000331F220F331F621773070CF49B01225027
:100400003109220F331F4FB7F894892F90E0FC0178
:10041000EE0FFF1F8E0F9F1FFC01E352FE4F328332
:1004200021834FBF0895CF93DF93DC018C918C30F3
:1004300008F06DC09B013327F901E854FF4F849108
:10044000F901EC55FF4F2491222399F030E0220F5F
:10045000331FF901E057FF4FC591D491F901E656DA
:10046000FF4F259134919FB7F894E881E82BE883FA
:100470009FBF8C91E82FF0E09F01220F331FE20F06
:10048000F31FE352FE4F6F739081907C692B608362
:1004900011961C92119712961C9212976CE00E9472
:1004A0009F069CE0899FB001112440E050E09A0132
:1004B000260F371FF901EE0FFF1F2E0F3F1FF90107
:1004C000E352FE4F908196FD16C04F5F5F4F4C3058
:1004D000510569F781110FC01092800082E080936E
:1004E00081001092850010928400B19A80916F0073
:1004F000826080936F00EC91F0E0CF01880F991F2C
:10050000E80FF91FE352FE4F8081806480838C9155
:10051000DF91CF910895009769F0FC0101900020D0
:10052000E9F73197AF01481B590BBC0180E491E01A
:100530000C949B0080E090E008958F929F92AF9280
:10054000BF920F931F93CF93DF93CDB7DEB7A197E1
:100550000FB6F894DEBF0FBECDBF19A2423008F42B
:100560004AE08E010F5D1F4F842E912CA12CB12CDF
:10057000A50194010E943A09E62FB901CA01015070
:100580001109EA3014F4E05D01C0E95CD801EC9394
:10059000232B242B252B61F7C8010E948B02A196E7
:1005A0000FB6F894DEBF0FBECDBFDF91CF911F9184
:1005B0000F91BF90AF909F908F9008950E94350942
:1005C0001F920F920FB60F9211242F933F934F93C8
:1005D0005F936F937F938F939F93AF93BF93EF93AB
:1005E000FF9380E491E00E94FE00FF91EF91BF91A4
:1005F000AF919F918F917F916F915F914F913F91BB
:100600002F910F900FBE0F901F9018951F920F9271
:100610000FB60F9211242F938F939F93EF93FF9315
:10062000E0915001F09151018081E0915601F091EB
:10063000570182FD12C09081809159018F5F8F73A5
:1006400020915A01821751F0E0915901F0E0E05CED
:10065000FE4F958F8093590101C08081FF91EF91EA
:100660009F918F912F910F900FBE0F901F90189513
:100670001F920F920FB60F9211242F933F938F93D7
:100680009F93AF93BF9380913C0190913D01A091C6
:100690003E01B0913F0130913B0123E0230F2D3704
:1006A00020F40196A11DB11D05C026E8230F029676
:1006B000A11DB11D20933B0180933C0190933D010E
:1006C000A0933E01B0933F01809137019091380192
:1006D000A0913901B0913A010196A11DB11D8093FD
:1006E000370190933801A0933901B0933A01BF913B
:1006F000AF919F918F913F912F910F900FBE0F90CF
:100700001F9018951F920F920FB60F9211242F93DE
:100710003F934F935F936F937F938F939F93AF9389
:10072000BF93EF93FF938091360187FF05C010922E
:100730008500109284001BC020913601022E000C0F
:10074000330B8091010290E02817390784F48091DF
:100750003601082E000C990BFC01EE0FFF1F8E0FC7
:100760009F1FFC01E352FE4F808186FD15C08091E2
:1007700036018F5F8093360120913601022E000CE6
:10078000330B8091010290E028173907C4F480915F
:1007900036018C3064F113C080913601082E000CB4
:1007A000990BFC01EE0FFF1F8E0F9F1FFC01E35200
:1007B000FE4F808160E08F730E949201D8CF8091BC
:1007C000840090918500049680349C4918F480E45C
:1007D0009CE905C0809184009091850004969093D7
:1007E0008900809388008FEF809336013BC0209171
:1007F00084003091850080913601082E000C990B01
:10080000FC01EE0FFF1F8E0F9F1FFC01E352FE4FF6
:1008100081819281820F931F909389008093880039
:1008200080913601082E000C990BFC01EE0FFF1F82
:100830008E0F9F1FFC01E352FE4F808186FF12C086
:1008400080913601082E000C990BFC01EE0FFF1F62
:100850008E0F9F1FFC01E352FE4F808161E08F737A
:100860000E949201FF91EF91BF91AF919F918F9163
:100870007F916F915F914F913F912F910F900FBE9C
:100880000F901F901895109243011092420188EE2C
:1008900093E0A0E0B0E08093440190934501A093E1
:1008A0004601B093470188E091E090934101809325
:1008B000400185EC90E090934D0180934C0184ECD5
:1008C00090E090934F0180934E0180EC90E09093E4
:1008D00051018093500181EC90E0909353018093FB
:1008E000520182EC90E0909355018093540186EC84
:1008F00090E0909357018093560110925901109205
:100900005A0110925B0110925C0180910102A2E0F9
:10091000B2E09FEF48EB5BE08C3078F48C93282FAB
:1009200030E0F901EE0FFF1F2E0F3F1FF901E352D8
:10093000FE4F528341838F5F01C09C93139622E048
:10094000A431B20749F7809301020895CF93DF9352
:10095000CDB7DEB72A970FB6F894DEBF0FBECDBF76
:10096000789484B5826084BD84B5816084BD85B58A
:10097000826085BD85B5816085BD80916E00816096
:1009800080936E001092810080918100826080933C
:10099000810080918100816080938100809180003E
:1009A0008160809380008091B10084608093B10069
:1009B0008091B00081608093B00080917A00846063
:1009C00080937A0080917A00826080937A0080918F
:1009D0007A00816080937A0080917A0080688093A9
:1009E0007A001092C100E0915001F091510182E033
:1009F0008083E0914C01F0914D011082E0914E0115
:100A0000F0914F018FEC808310925801E0915401D6
:100A1000F091550186E08083E0915201F0915301FD
:100A2000808180618083E0915201F0915301808147
:100A300088608083E0915201F09153018081806849
:100A40008083E0915201F091530180818F7D8083FA
:100A500084E191E00E948B0287E291E00E948B0288
:100A600062E070E082E092E00E94130263E070E0D6
:100A700085E092E00E94130264E070E088E092E07A
:100A80000E94130265E070E08BE092E00E94130286
:100A900066E070E08EE092E00E94130267E070E092
:100AA00081E192E00E94130260E278EA8DE89FE320
:100AB0000E94B10629ED3FE049EC5FE30E94C206C7
:100AC00021EE3EE245E652E40E9468084B015C01DB
:100AD00064E078E482E89FE30E94B10621EE3EE202
:100AE00045E652E40E9468082B013C0120E030E01A
:100AF00044EB52E40E94C20623E333E343ED50E4A7
:100B00000E9468089B01AC0160E070E88BEB94E404
:100B10000E94C2066B017C0120E030E044EB52E40D
:100B2000C501B4010E94C20623E333E343ED50E460
:100B30000E94680820E030E84BEB54E40E94C306B2
:100B40000E9434071B01C701B6010E9434078B01C4
:100B5000A301920160E070E084E393E40E94C20686
:100B600020E030E044EB52E40E94C306A50194016A
:100B70000E94C2062AE939E941E351E40E9468086B
:100B800020E030E84BEB54E40E94C3060E94340797
:100B90007A876987D701C601BF778D839E83AF832C
:100BA000B887D701C601B05889839A83AB83BC83C9
:100BB0006CED75E082E092E00E94DE01B10185E01B
:100BC00092E00E94DE01B80188E092E00E94DE011E
:100BD00069857A858BE092E00E94DE01A70196018B
:100BE000C701B6010E941B09882319F08AE291E02F
:100BF0001AC02FEF3FEF4FE75FE76D817E818F8156
:100C000098850E941B09811111C02FEF3FEF4FE71C
:100C10005FE76D817E818F8198850E942F0718166E
:100C20002CF48EE291E00E948B0282C02FEF3FEF06
:100C30004FE75FE4C701B6010E94630818161CF471
:100C400082E391E0F0CF2FEF3FEF4FE75FECC7017A
:100C5000B6010E942F0787FDF3CF20E030E0A90105
:100C6000C701B6010E942F0787FF10C0E091400125
:100C7000F09141010190F081E02D6DE280E491E07E
:100C80000995B981AA81EB81BC8004C0BC2DAD2D32
:100C9000EE2DBF2C2AE037ED43EA5BE36B2F7A2F72
:100CA0008E2F9B2D0E94C3062B013C010E943B0707
:100CB0004B015C010E946A079B01AC01C301B201B8
:100CC0000E94C2062B013C014AE0C501B4010E940A
:100CD0009D0285E291E00E948B0220E030E040E23C
:100CE00051E4C301B2010E9468084B015C010E94FB
:100CF0003B072B01612C712C4AE0C301B2010E9419
:100D00009D02C301B2010E946A079B01AC01C501AB
:100D1000B4010E94C20620E030E040E251E40E94AB
:100D200068080E943B0780E090E04AE00E949D0234
:100D300087E291E00E948B020E94880139CF991BC3
:100D400079E004C0991F961708F0961B881F7A95C2
:100D5000C9F780950895EE0FFF1F0590F491E02DDF
:100D600009949F939F770E94A7070F90002042F459
:100D70009058A2EA2AED3FE049E450E40E94DA06E6
:100D80000C9429085058BB27AA270E94DA060C9415
:100D900029080E941B0838F00E94220820F039F42C
:100DA0009F3F19F426F40C94F1070EF4E095E7FB4D
:100DB0000C94EB07E92F0E943A0858F3BA17620720
:100DC00073078407950720F079F4A6F50C945C0866
:100DD0000EF4E0950B2EBA2FA02D0B01B901900156
:100DE0000C01CA01A0011124FF27591B99F0593F9A
:100DF00050F4503E68F11A16F040A22F232F342FE2
:100E00004427585FF3CF469537952795A795F0402F
:100E10005395C9F77EF41F16BA0B620B730B840B44
:100E2000BAF09150A1F0FF0FBB1F661F771F881FFC
:100E3000C2F70EC0BA0F621F731F841F48F4879554
:100E400077956795B795F7959E3F08F0B0CF939546
:100E5000880F08F09927EE0F9795879508950E94BF
:100E6000C70708F481E008950E943B076894B11118
:100E70000C945D0808950E94420888F09F5798F0EE
:100E8000B92F9927B751B0F0E1F0660F771F881F8F
:100E9000991F1AF0BA95C9F714C0B13091F00E94A9
:100EA0005C08B1E008950C945C08672F782F8827C0
:100EB000B85F39F0B93FCCF3869577956795B395D0
:100EC000D9F73EF490958095709561957F4F8F4F3F
:100ED0009F4F0895E89409C097FB3EF49095809544
:100EE000709561957F4F8F4F9F4F9923A9F0F92FF0
:100EF00096E9BB279395F695879577956795B7956E
:100F0000F111F8CFFAF4BB0F11F460FF1BC06F5F53
:100F10007F4F8F4F9F4F16C0882311F096E911C065
:100F2000772321F09EE8872F762F05C0662371F086
:100F300096E8862F70E060E02AF09A95660F771F9A
:100F4000881FDAF7880F9695879597F90895DF93AC
:100F5000CF931F930F938B01EC01E8E6F0E00E9422
:100F6000F4070E9429089801AE018B01EC0160E0B2
:100F700070E080E89FE30E94C2060E94DB089801AF
:100F8000AE010F911F91CF91DF910C947B08990FC7
:100F90000008550FAA0BE0E8FEEF16161706E80743
:100FA000F907C0F012161306E407F50798F0621B64
:100FB000730B840B950B39F40A2661F0232B242B39
:100FC000252B21F408950A2609F4A140A6958FEF58
:100FD000811D811D089597F99F6780E870E060E0AA
:100FE00008959FEF80EC0895DF93CF931F930F93A5
:100FF000FF92EF92DF927B018C01689406C0DA2E9B
:10100000EF010E947B08FE01E894A591259135919E
:1010100045915591A6F3EF010E94DA06FE01970172
:10102000A801DA9469F7DF90EF90FF900F911F917C
:10103000CF91DF91089500240A941616170618061A
:101040000906089500240A941216130614060506CC
:101050000895092E0394000C11F4882352F0BB0F5D
:1010600040F4BF2B11F460FF04C06F5F7F4F8F4FC0
:101070009F4F089557FD9058440F551F59F05F3FFB
:1010800071F04795880F97FB991F61F09F3F79F0AA
:1010900087950895121613061406551FF2CF46952C
:1010A000F1DF08C0161617061806991FF1CF8695AE
:1010B0007105610508940895E894BB276627772792
:1010C000CB0197F908950E94C70708F48FEF0895A0
:1010D0000E947B080C9429080E941B0838F00E948B
:1010E000220820F0952311F00C94EB070C94F107E3
:1010F00011240C945D080E943A0870F3959FC1F387
:10110000950F50E0551F629FF001729FBB27F00DB5
:10111000B11D639FAA27F00DB11DAA1F649F66270A
:10112000B00DA11D661F829F2227B00DA11D621F59
:10113000739FB00DA11D621F839FA00D611D221F13
:10114000749F3327A00D611D231F849F600D211DF7
:10115000822F762F6A2F11249F5750409AF0F1F07A
:1011600088234AF0EE0FFF1FBB1F661F771F881FE3
:1011700091505040A9F79E3F510580F00C94EB0729
:101180000C945D085F3FE4F3983ED4F38695779521
:101190006795B795F795E7959F5FC1F7FE2B880F89
:1011A000911D9695879597F9089519F416F40C9466
:1011B000F1070C9420090E944208B8F39923C9F35F
:1011C000B6F39F57550B87FF0E942E090024A0E617
:1011D00040EA900180585695979528F4805C660FF8
:1011E000771F881F20F026173707480730F4621B47
:1011F000730B840B202931294A2BA6951794079449
:10120000202531254A2758F7660F771F881F20F0C1
:1012100026173707480730F4620B730B840B200D39
:10122000311D411DA09581F7B901842F9158880F78
:101230009695879508950E94C707880B990B089586
:101240009F3F31F0915020F4879577956795B7953A
:10125000880F911D9695879597F908959150504064
:10126000660F771F881FD2F7089581E090E0F89409
:101270000C945C09A1E21A2EAA1BBB1BFD010DC038
:10128000AA1FBB1FEE1FFF1FA217B307E407F50736
:1012900020F0A21BB30BE40BF50B661F771F881F12
:1012A000991F1A9469F760957095809590959B01A8
:0C12B000AC01BD01CF010895F894FFCF00
:1012BC0001000000000000001F019B00E800C600B8
:1012CC00DA00660141726475696E6F2052756E6E3C
:1012DC00696E672E2E2E000D0A006E616E00696E0F
:0612EC0066006F7666004B
:00000001FF
