:100000000C9497000C94BF000C94BF000C94BF009C
:100010000C94BF000C94BF000C94BF000C94BF0064
:100020000C94BF000C94BF000C94BF000C940E07FE
:100030000C94BF000C94BF000C94BF000C94BF0044
:100040000C94C4060C94BF000C9492060C946C069D
:100050000C94BF000C94BF000C94BF000C94BF0024
:100060000C94BF000C94BF00084AD73B3BCE016EF6
:1000700084BCBFFDC12F3D6C74319ABD56833DDAFF
:100080003D00C77F11BED9E4BB4C3E916BAAAABE0E
:10009000000000803F072C7AA5BA6CC590DA3B932C
:1000A00065FC8BBC53F810FD3C5692834DBD879D7B
:1000B0003AB63DCBC9BF5BBE73DA0FC93F05A84C4A
:1000C000CDB2D44EB93836A9020C50B99186880801
:1000D0003CA6AAAA2ABE000000803F000000000043
:1000E000240027002A0000000000250028002B0023
:1000F00004040404040404040202020202020303CE
:1001000003030303010204081020408001020408D5
:100110001020010204081020000000080002010065
:10012000000304070000000000000000CF071124B6
:100130001FBECFEFD8E0DEBFCDBF11E0A0E0B1E041
:10014000EAEDFBE102C005900D92A832B107D9F7A4
:1001500022E0A8E2B1E001C01D92A630B207E1F7AB
:1001600010E0C7E9D0E004C02197FE010E94E00D35
:10017000C639D107C9F70E9432080C94EB0D0C94D4
:100180000000CF92DF92EF92FF920F931F93CF93D5
:10019000DF936C017A018B01C0E0D0E0CE15DF0562
:1001A00089F0D8016D918D01D601ED91FC910190FE
:1001B000F081E02DC6010995892B11F47E0102C062
:1001C0002196ECCFC701DF91CF911F910F91FF9046
:1001D000EF90DF90CF900895089580E090E008952B
:1001E000FC01538D448D252F30E0842F90E0821B3D
:1001F000930B541710F0CF96089501970895FC01C2
:10020000918D828D981761F0828DDF01A80FB11D4D
:100210005D968C91928D9F5F9F73928F90E0089571
:100220008FEF9FEF0895FC01918D828D981731F02B
:10023000828DE80FF11D858D90E008958FEF9FEF7F
:100240000895FC01918D228D892F90E0805C9F4F55
:10025000821B91098F739927089582E391E00E9490
:10026000210121E0892B09F420E0822F0895FC016F
:10027000848DDF01A80FB11DA35ABF4F2C91848D2F
:1002800090E001968F739927848FA689B7892C9364
:10029000A089B1898C9180648C93938D848D9813FF
:1002A00006C00288F389E02D80818F7D80830895C8
:1002B000EF92FF920F931F93CF93DF93EC0181E0B6
:1002C000888F9B8D8C8D981305C0E889F989808172
:1002D00085FD24C0F62E0B8D10E00F5F1F4F0F73AE
:1002E0001127E02E8C8DE8120CC00FB607FCFACF58
:1002F000E889F989808185FFF5CFCE010E94370119
:10030000F1CF8B8DFE01E80FF11DE35AFF4FF08214
:100310000B8FEA89FB898081806207C0EE89FF89A3
:100320006083E889F98980818064808381E090E03E
:10033000DF91CF911F910F91FF90EF900895CF9390
:10034000DF93EC01888D8823C9F0EA89FB898081DD
:1003500085FD05C0A889B9898C9186FD0FC00FB6AF
:1003600007FCF5CF808185FFF2CFA889B9898C91F0
:1003700085FFEDCFCE010E943701E7CFDF91CF910E
:10038000089580E090E0892B29F00E942D018111D1
:100390000C940000089590E0FC01E85EFE4F34915B
:1003A000FC01EC5FFE4F2491FC01E051FF4FE49112
:1003B000EE2309F43BC0332339F1333091F038F4A4
:1003C0003130A9F0323001F584B58F7D12C037305D
:1003D00091F03830A1F03430B9F4809180008F7DF5
:1003E00003C0809180008F77809380000DC084B51A
:1003F0008F7784BD09C08091B0008F7703C0809152
:10040000B0008F7D8093B000F0E0EE0FFF1FEA5147
:10041000FF4FA591B4918FB7F894EC91611103C08F
:1004200020952E2301C02E2B2C938FBF08953FB70C
:10043000F89480912E0190912F01A0913001B091FC
:10044000310126B5A89B05C02F3F19F00196A11DCB
:10045000B11D3FBFBA2FA92F982F8827820F911D5A
:10046000A11DB11DBC01CD0142E0660F771F881FA1
:10047000991F4A95D1F708958F929F92AF92BF929C
:10048000CF92DF92EF92FF926B017C010E941702E4
:100490004B015C01C114D104E104F104F1F00E94AC
:1004A0001702DC01CB0188199909AA09BB09883E0A
:1004B0009340A105B10570F321E0C21AD108E1080B
:1004C000F10888EE880E83E0981EA11CB11CC114AF
:1004D000D104E104F10419F7DDCFFF90EF90DF9034
:1004E000CF90BF90AF909F908F900895CF92DF9262
:1004F000EF92FF92CF93DF93EC01603282E07807B6
:100500000CF03DC077FD06C0653B71052CF064EB37
:1005100070E002C060E070E0898128E830E06901A5
:10052000C81AD10887FDD394CC0CDD1CCC0CDD1C83
:100530000D2C000CEE08FF088A8128E532E0281B0C
:10054000310987FD3395220F331F220F331FC90155
:10055000330FAA0BBB0B9C01AD012C193D094E09B1
:100560005F09DB010E94CC0924EB30E040E050E061
:100570000E94A209C20ED31EE41EF51EB601888198
:100580008C3080F5998148E850E0491B510997FD6E
:100590005395440F551F440F551F6417750784F07A
:1005A0009A8128E532E0291B310997FD3395220F06
:1005B000331F220F331FAB01261737070CF4A90195
:1005C00042505109440F551F2FB7F89490E0FC0199
:1005D000EE0FFF1F8E0F9F1FFC01E153FE4F528352
:1005E00041832FBFDF91CF91FF90EF90DF90CF90AD
:1005F0000895CF93DF93DC018C918C3008F06DC0AF
:100600009B013327F901EC5FFE4F8491F901E05122
:10061000FF4F2491222399F030E0220F331FF9017C
:10062000E452FF4FC591D491F901EA51FF4F259152
:1006300034919FB7F894E881E82BE8839FBF8C91B1
:10064000E82FF0E09F01220F331FE20FF31FE15369
:10065000FE4F6F739081907C692B608311961C9282
:10066000119712961C9212976CE00E94D40D9CE098
:10067000899FB001112440E050E09A01260F371FF6
:10068000F901EE0FFF1F2E0F3F1FF901E153FE4F3F
:10069000908196FD16C04F5F5F4F4C30510569F752
:1006A00081110FC01092800082E08093810010922F
:1006B000850010928400B19A80916F0082608093CF
:1006C0006F00EC91F0E0CF01880F991FE80FF91F40
:1006D000E153FE4F8081806480838C91DF91CF91C4
:1006E00008950E94E60D4F925F926F927F928F92D3
:1006F0009F92AF92BF92CF92DF92EF92FF920F93B1
:100700001F93CF93DF93CDB7DEB72C970FB6F89436
:10071000DEBF0FBECDBF2B013C0149015A01E9826A
:10072000FA820B831C839B01AC01C501B4010E94BA
:10073000960A6D837E838F839887A3019201C301FC
:10074000B2010E94EC0C6B017C01A5019401C50172
:10075000B4010E94EC0C9B01AC01C701B6010E94E0
:10076000170A4B015C0129813A814B815C81CA01E6
:10077000B9010E94EC0C9B01AC01C501B4010E94BF
:10078000170A20E039EB47E557E40E94160A20E0FB
:1007900038E044E856E40E94160A20E03CEA4EE6BF
:1007A00057E40E94FF0A0E94050A6B017C01F7FAD8
:1007B000F094F7F8F094C701B6010E94FA0A2B01F1
:1007C0003C01C701B6010E94590D69877A878B8762
:1007D0009C87C501B4010E94670D9B01AC01698132
:1007E0007A818B819C810E94960A4B015C0120E0FA
:1007F00030E042E053E4C301B2010E94EC0C20E07F
:1008000030E04BE653E40E94170A2B013C0120E044
:1008100030E042E053E469857A858B859C850E94AF
:10082000EC0CA30192010E94960A69837A838B8360
:100830009C8321EE3EE245E652E46D817E818F810C
:1008400098850E94EC0C2B013C0129813A814B8157
:100850005C81C501B4010E94160A21EE3EE245E624
:1008600052E40E94EC0C4B015C0121EE3EE245E6B5
:1008700052E4C701B6010E94EC0C6B017C0120E040
:1008800030E0A9010E94F50A87FF0DC020E030E0AA
:10089000A901C701B6010E94DF0C181624F0F7FA6F
:1008A000F094F7F8F094C301B2010E94710B84EF49
:1008B00091E00E947602A501940160E070E084E37B
:1008C00093E40E94160A0E94710B87EF91E00E9448
:1008D000760261E670E08AEF91E00E947602A7015D
:1008E000960160E070E08EE393E40E94160A0E9495
:1008F000710B8DEF91E02C960FB6F894DEBF0FBE12
:10090000CDBFDF91CF911F910F91FF90EF90DF90BE
:10091000CF90BF90AF909F908F907F906F905F909F
:100920004F900C9476022F923F924F925F926F926B
:100930007F928F929F92AF92BF92CF92DF92EF926F
:10094000FF920F931F93CF93DF93CDB7DEB76297DC
:100950000FB6F894DEBF0FBECDBF5C016B011A016C
:100960003A8329831E830D83F886EF8268EE73E055
:1009700080E090E00E943C0229813A81BA8AA98AEB
:10098000A216B3067CF0C101032C000CAA0BBB0B12
:1009900089879A87AB87BC8726010D2C000C6608D7
:1009A000770841C02101032C000C66087708C601B6
:1009B0000D2C000CAA0BBB0B89879A87AB87BC87D1
:1009C000C301B2010E94A90B4B015C0169857A85C4
:1009D0008B859C850E94A90B9B01AC01A989BA89D2
:1009E000BD01BB0F880B990B2D873E874F87588B16
:1009F0000E94A90B850174012D853E854F8558897C
:100A00000E9473036AE070E080E090E00E943C0284
:100A1000E989FA893196FA8BE98B29813A81E217C3
:100A2000F30771F635C029893A8989819A81281797
:100A3000390771F169857A858B859C850E94A90BA0
:100A40004B015C01C301B2010E94A90B9B01AC01E7
:100A5000A989BA89BD01BB0F880B990B2D873E87E9
:100A60004F87588B0E94A90B850174012D853E8507
:100A70004F8558890E9473036AE070E080E090E03F
:100A80000E943C02E989FA893197FA8BE98BCBCF36
:100A9000AD81BE81CA16DB0684F0C101032C000CB7
:100AA000AA0BBB0B89839A83AB83BC83A989BA89C0
:100AB0002D01BB0F660877083FC02101032C000CF5
:100AC0006608770889899A89092E000CAA0BBB0B46
:100AD00089839A83AB83BC83C301B2010E94A90BB3
:100AE0004B015C01B6010D2C000C880B990B0E9488
:100AF000A90B9B01AC0169817A818B819C812D8737
:100B00003E874F87588B0E94A90B850174012D8564
:100B10003E854F8558890E9473036AE070E080E04B
:100B200090E00E943C029FEFC91AD90AAD81BE81B4
:100B3000CA16DB0689F630C0ED81FE81CE16DF06CF
:100B400059F169817A818B819C810E94A90B4B01AB
:100B50005C01B6010D2C000C880B990B0E94A90BAF
:100B60009B01AC01C301B2012D873E874F87588B93
:100B70000E94A90B850174012D853E854F855889FA
:100B80000E9473036AE070E080E090E00E943C0203
:100B9000B1E0CB1AD108D0CF46012F81388522167B
:100BA00033067CF0C601DD0CAA0BBB0B89839A834C
:100BB000AB83BC83A989BA894D01BB0FAA08BB08C6
:100BC0005BC0092C000CAA08BB0889899A89092EE8
:100BD000000CAA0BBB0B89839A83AB83BC83B10146
:100BE000032C000C880B990B0E94A90B2B013C01D4
:100BF000C501B4010E94A90B9B01AC0169817A81F6
:100C00008B819C812D873E874F87588B0E94A90B33
:100C1000830172012D853E854F8558890E9473039B
:100C20006AE070E080E090E00E943C029FEF291AA9
:100C3000390AAF81B8852A163B0689F668EE73E05B
:100C400080E090E062960FB6F894DEBF0FBECDBF95
:100C5000DF91CF911F910F91FF90EF90DF90CF9098
:100C6000BF90AF909F908F907F906F905F904F90CC
:100C70003F902F900C943C02EF81F8852E163F0692
:100C8000E9F2B101032C000C880B990B0E94A90B0F
:100C90002B013C0169817A818B819C810E94A90B87
:100CA0009B01AC01C501B4012D873E874F87588B4E
:100CB0000E94A90B830172012D853E854F855889BD
:100CC0000E9473036AE070E080E090E00E943C02C2
:100CD000B1E02B1A3108D0CF1F920F920FB60F92AE
:100CE00011242F933F934F935F936F937F938F9331
:100CF0009F93AF93BF93EF93FF9382E391E00E94A2
:100D00003701FF91EF91BF91AF919F918F917F91AB
:100D10006F915F914F913F912F910F900FBE0F9068
:100D20001F9018951F920F920FB60F9211242F93B8
:100D30008F939F93EF93FF93E0914201F0914301D2
:100D40008081E0914801F091490182FD12C09081BB
:100D500080914B018F5F8F7320914C01821751F06E
:100D6000E0914B01F0E0EE5CFE4F958F80934B01DC
:100D700001C08081FF91EF919F918F912F910F90F2
:100D80000FBE0F901F9018951F920F920FB60F92E3
:100D900011242F933F938F939F93AF93BF93809191
:100DA0002A0190912B01A0912C01B0912D0130913D
:100DB000290123E0230F2D3720F40196A11DB11D39
:100DC00005C026E8230F0296A11DB11D209329011D
:100DD00080932A0190932B01A0932C01B0932D01B5
:100DE00080912E0190912F01A0913001B09131019D
:100DF0000196A11DB11D80932E0190932F01A09308
:100E00003001B0933101BF91AF919F918F913F918C
:100E10002F910F900FBE0F901F9018951F920F9259
:100E20000FB60F9211242F933F934F935F936F93BD
:100E30007F938F939F93AF93BF93EF93FF93809193
:100E4000280187FF05C010928500109284001BC006
:100E500020912801022E000C330B8091F30190E0C9
:100E60002817390784F480912801082E000C990B6B
:100E7000FC01EE0FFF1F8E0F9F1FFC01E153FE4F81
:100E8000808186FD15C0809128018F5F80932801A5
:100E900020912801022E000C330B8091F30190E089
:100EA00028173907C4F4809128018C3064F113C0ED
:100EB00080912801082E000C990BFC01EE0FFF1FFA
:100EC0008E0F9F1FFC01E153FE4F808160E08F7306
:100ED0000E94CB01D8CF8091840090918500049628
:100EE00080349C4918F480E49CE905C0809184001A
:100EF00090918500049690938900809388008FEFED
:100F0000809328013BC0209184003091850080911E
:100F10002801082E000C990BFC01EE0FFF1F8E0F0D
:100F20009F1FFC01E153FE4F81819281820F931F2D
:100F3000909389008093880080912801082E000CEE
:100F4000990BFC01EE0FFF1F8E0F9F1FFC01E15359
:100F5000FE4F808186FF12C080912801082E000C70
:100F6000990BFC01EE0FFF1F8E0F9F1FFC01E15339
:100F7000FE4F808161E08F730E94CB01FF91EF9162
:100F8000BF91AF919F918F917F916F915F914F91A1
:100F90003F912F910F900FBE0F901F9018951092B8
:100FA00035011092340188EE93E0A0E0B0E0809328
:100FB000360190933701A0933801B093390184E052
:100FC00091E0909333018093320185EC90E090930F
:100FD0003F0180933E0184EC90E090934101809327
:100FE000400180EC90E0909343018093420181ECBA
:100FF00090E0909345018093440182EC90E09093BF
:1010000047018093460186EC90E0909349018093DC
:10101000480110924B0110924C0110924D01109218
:101020004E018091F301A4EFB1E09FEF48EB5BE04C
:101030008C3078F48C93282F30E0F901EE0FFF1FED
:101040002E0F3F1FF901E153FE4F528341838F5F03
:1010500001C09C93139622E0A630B20749F7809313
:10106000F3010895789484B5826084BD84B581606D
:1010700084BD85B5826085BD85B5816085BD809163
:101080006E00816080936E001092810080918100DB
:1010900082608093810080918100816080938100D3
:1010A000809180008160809380008091B100846095
:1010B0008093B1008091B00081608093B0008091F6
:1010C0007A00846080937A0080917A0082608093B5
:1010D0007A0080917A00816080937A0080917A0012
:1010E000806880937A001092C100E0914201F091F3
:1010F000430182E08083E0913E01F0913F01108244
:10110000E0914001F09141018FEC808310924A01FF
:10111000E0914601F091470186E08083E09144012F
:10112000F0914501808180618083E0914401F091DC
:101130004501808188608083E0914401F091450100
:10114000808180688083E0914401F0914501808135
:101150008F7D808342E150E062E171E082E391E0C3
:101160000E94C10042E050E065E271E082E391E05C
:101170000E94C10062E070E084EF91E00E94F902F9
:1011800063E070E087EF91E00E94F90264E070E0B4
:101190008AEF91E00E94F90265E070E08DEF91E046
:1011A0000E94F90266E070E080E092E00E94F9029D
:1011B00067E070E083E092E00E94F90288ECE82E9C
:1011C000F12C04E610E028EC30E048EC50E064E656
:1011D00070E080E090E00E94930408EC10E028ECBE
:1011E00030E048EC50E064E670E088EC90E00E946B
:1011F00093046DE270E083E092E00E94760264EF77
:1012000071E080E090E00E943C0264E670E083E0E0
:1012100092E00E94760204E610E028EC30E048EC10
:1012200050E068EC70E088EC90E00E9493042EECB3
:101230003FEF48EC50E064E670E088EC90E00E94FC
:1012400093042CE93FEF48EC50E064E670E08EEC4C
:101250009FEF0E949304E12CF12C2AE63FEF48EC2B
:1012600050E064E670E08CE99FEF0E9493042CE963
:101270003FEF40E050E064E670E08AE69FEF0E94B6
:10128000930496E9E92EF12C2CE93FEF40E050E081
:1012900064E670E08CE99FEF0E94930460E177E2DE
:1012A00080E090E00E943C02E12CF12C2CE93FEF21
:1012B00046E950E064E670E08CE99FEF0E949304F9
:1012C0002AE63FEF40E050E064E670E08CE99FEFF3
:1012D0000E94930428ECE22EF12C2EEC3FEF40E02C
:1012E00050E064E670E08AE69FEF0E9493042CE9E8
:1012F0003FEF48EC50E064E670E08EEC9FEF0E9418
:1013000093042EEC3FEF48EC50E064E670E08CE98B
:101310009FEF0E94930428EC30E048EC50E064E634
:1013200070E08EEC9FEF0E94930420E030E048ECE8
:1013300050E064E670E088EC90E00E9493040E9424
:10134000C1013CCF052E97FB1EF400940E94B90901
:1013500057FD07D00E94D40907FC03D04EF40C942B
:10136000B90950954095309521953F4F4F4F5F4FAC
:10137000089590958095709561957F4F8F4F9F4F01
:1013800008950E94F609A59F900DB49F900DA49F0B
:10139000800D911D11240895B7FF0C94C1090E947E
:1013A000C109821B930B0895A1E21A2EAA1BBB1B35
:1013B000FD010DC0AA1FBB1FEE1FFF1FA217B30721
:1013C000E407F50720F0A21BB30BE40BF50B661F37
:1013D000771F881F991F1A9469F7609570958095FB
:1013E00090959B01AC01BD01CF010895A29FB00172
:1013F000B39FC001A39F700D811D1124911DB29F49
:10140000700D811D1124911D08959F939F770E9457
:10141000E40B0F90002042F49058A2EA2AED3FE03E
:1014200049E450E40E942E0A0C94910C5058BB27BA
:10143000AA270E942E0A0C94910C0E94580C38F096
:101440000E945F0C20F039F49F3F19F426F40C94AD
:101450002E0C0EF4E095E7FB0C94280CE92F0E946B
:10146000B60C58F3BA17620773078407950720F084
:1014700079F4A6F50C94D80C0EF4E0950B2EBA2F47
:10148000A02D0B01B90190010C01CA01A00111248A
:10149000FF27591B99F0593F50F4503E68F11A1636
:1014A000F040A22F232F342F4427585FF3CF4695C7
:1014B00037952795A795F0405395C9F77EF41F16E9
:1014C000BA0B620B730B840BBAF09150A1F0FF0FB3
:1014D000BB1F661F771F881FC2F70EC0BA0F621F9F
:1014E000731F841F48F4879577956795B795F7958F
:1014F0009E3F08F0B0CF9395880F08F09927EE0F24
:101500009795879508950E94580C60F080E891E0C7
:1015100009F49EEF0E945F0C28F040E851E071F45E
:101520005EEF0CC00C942E0C0C94D80CE92FE078D4
:101530000E94B60C40F3092E052AB1F3261737078F
:101540004807590738F00E2E07F8E02569F0E02526
:10155000E0640AC0EF6307F8009407FADB01B90101
:101560009D01DC01CA01AD01EF930E94160B0E94A0
:10157000910C0E94C60A5F91552339F02BED3FE094
:1015800049E450FD49EC0C94170A0895DF93DD27D8
:10159000B92FBF7740E85FE31616170648075B07C9
:1015A00018F4D92F0E94E40C9F938F937F936F932D
:1015B0000E94A70DE8E6F0E00E94310C0E94910C19
:1015C0002F913F914F915F910E94FF0CDD2351F0CD
:1015D0009058A2EA2AED3FE049EC5FE3D0785D271E
:1015E0000E942E0ADF910C94910C0E94040C08F4C6
:1015F00081E008950E94680CE3950C94A20C0E946F
:10160000130B0C94910C0E945F0C58F00E94580C24
:1016100040F029F45F3F29F00C94280C51110C94F0
:10162000D90C0C942E0C0E94B60C68F39923B1F3DC
:10163000552391F3951B550BBB27AA2762177307F8
:10164000840738F09F5F5F4F220F331F441FAA1F8C
:10165000A9F335D00E2E3AF0E0E832D09150504048
:10166000E695001CCAF72BD0FE2F29D0660F771FF6
:10167000881FBB1F261737074807AB07B0E809F0DC
:10168000BB0B802DBF01FF2793585F4F3AF09E3F61
:10169000510578F00C94280C0C94D90C5F3FE4F3BE
:1016A000983ED4F3869577956795B795F7959F5FA4
:1016B000C9F7880F911D9695879597F90895E1E0F0
:1016C000660F771F881FBB1F621773078407BA074F
:1016D00020F0621B730B840BBA0BEE1F88F7E095AA
:1016E00008950E94780B6894B1110C94D90C089558
:1016F0000E94BE0C88F09F5798F0B92F9927B751D8
:10170000B0F0E1F0660F771F881F991F1AF0BA95A5
:10171000C9F714C0B13091F00E94D80CB1E008951F
:101720000C94D80C672F782F8827B85F39F0B93F11
:10173000CCF3869577956795B395D9F73EF4909558
:101740008095709561957F4F8F4F9F4F0895E894D6
:1017500009C097FB3EF490958095709561957F4FF9
:101760008F4F9F4F9923A9F0F92F96E9BB279395A7
:10177000F695879577956795B795F111F8CFFAF4B7
:10178000BB0F11F460FF1BC06F5F7F4F8F4F9F4FE8
:1017900016C0882311F096E911C0772321F09EE846
:1017A000872F762F05C0662371F096E8862F70E0AC
:1017B00060E02AF09A95660F771F881FDAF7880F86
:1017C0009695879597F90895DF93CF931F930F937D
:1017D0008B01EC01E5E9F0E00E94310C0E94910CD4
:1017E0009801AE018B01EC0160E070E080E89FE3BE
:1017F0000E94160A0E94670D9801AE010F911F9179
:10180000CF91DF910C94FF0C990F0008550FAA0B94
:10181000E0E8FEEF16161706E807F907C0F0121603
:101820001306E407F50798F0621B730B840B950B06
:1018300039F40A2661F0232B242B252B21F408955B
:101840000A2609F4A140A6958FEF811D811D0895F8
:1018500097F99F6780E870E060E008959FEF80EC63
:101860000895DF93CF931F930F93FF92EF92DF9230
:101870007B018C01689406C0DA2EEF010E94FF0CF8
:10188000FE01E894A5912591359145915591A6F3D6
:10189000EF010E942E0AFE019701A801DA9469F770
:1018A000DF90EF90FF900F911F91CF91DF910895FE
:1018B00000240A941616170618060906089500242F
:1018C0000A94121613061406050608950C942E0C9D
:1018D0000E94BE0CD8F3E894E0E0BB279F57F0F0DD
:1018E0002AED3FE049EC06C0EE0FBB0F661F771FE5
:1018F000881F28F0B23A62077307840728F0B25AAB
:10190000620B730B840BE3959A9572F7803830F471
:101910009A95BB0F661F771F881FD2F790480C94CB
:10192000AD0D092E0394000C11F4882352F0BB0F67
:1019300040F4BF2B11F460FF04C06F5F7F4F8F4FE7
:101940009F4F0895EF93E0FF07C0A2EA2AED3FE022
:1019500049EC5FEB0E942E0A0E94910C0F900394B9
:1019600001FC9058EDEBF0E00C94C00D57FD905841
:10197000440F551F59F05F3F71F04795880F97FB53
:10198000991F61F09F3F79F087950895121613060D
:101990001406551FF2CF4695F1DF08C0161617063C
:1019A0001806991FF1CF8695710561050894089571
:1019B000E894BB2766277727CB0197F908950E9403
:1019C000040C08F48FEF08959B01AC0160E070E017
:1019D00080E89FE30C94FF0A0E94FF0C0C94910C8A
:1019E0000E94580C38F00E945F0C20F0952311F0F3
:1019F0000C94280C0C942E0C11240C94D90C0E94DD
:101A0000B60C70F3959FC1F3950F50E0551F629F80
:101A1000F001729FBB27F00DB11D639FAA27F00D47
:101A2000B11DAA1F649F6627B00DA11D661F829F6E
:101A30002227B00DA11D621F739FB00DA11D621F53
:101A4000839FA00D611D221F749F3327A00D611D70
:101A5000231F849F600D211D822F762F6A2F112452
:101A60009F5750409AF0F1F088234AF0EE0FFF1F85
:101A7000BB1F661F771F881F91505040A9F79E3FDC
:101A8000510580F00C94280C0C94D90C5F3FE4F3C2
:101A9000983ED4F3869577956795B795F795E79532
:101AA0009F5FC1F7FE2B880F911D9695879597F93B
:101AB00008959F930E94680C0F9007FCEE5F0C94B2
:101AC000A20C19F416F40C942E0C0C94AB0D0E947D
:101AD000BE0CB8F39923C9F3B6F39F57550B87FF94
:101AE0000E94B90D0024A0E640EA90018058569566
:101AF000979528F4805C660F771F881F20F02617C3
:101B00003707480730F4621B730B840B20293129F7
:101B10004A2BA69517940794202531254A2758F774
:101B2000660F771F881F20F026173707480730F405
:101B3000620B730B840B200D311D411DA09581F7A5
:101B4000B901842F9158880F9695879508959B0128
:101B5000AC010C94EC0C9F3F31F0915020F4879530
:101B600077956795B795880F911D9695879597F905
:101B7000089591505040660F771F881FD2F708953F
:101B80009F938F937F936F93FF93EF939B01AC0190
:101B90000E94EC0CEF91FF910E94310C2F913F912C
:101BA0004F915F910C94EC0C991B79E004C0991F44
:101BB000961708F0961B881F7A95C9F780950895A7
:101BC000EE0FFF1F0590F491E02D099481E090E065
:0A1BD000F8940C94EB0DF894FFCF8D
:101BDA00000000005801C100F0009F012101FF0030
:101BEA00130141726475696E6F2052756E6E696E6B
:081BFA00672E2E2E000D0A00DB
:00000001FF
